:020000040800F2
:100000002005002001010008CF1F0008B51D0008D1
:10001000CD1F0008390800089D24000800000000DA
:10002000000000000000000000000000D31F0008D6
:100030007308000800000000D11F0008D51F000849
:100040001B0100081B0100081B0100081B01000820
:100050001B0100081B010008750800081B010008AF
:100060001B0100081B0100081B0100083D080008D7
:100070001B0100081B0100081B0100081B010008F0
:100080001B0100081B0100081B0100081B010008E0
:100090001B0100081B0100081B0100088308000861
:1000A0001B0100081B0100081B0100081B010008C0
:1000B0001B0100081B0100081B0100081B010008B0
:1000C0001B0100081B0100081B0100081B010008A0
:1000D0001B0100081B0100081B01000891240008F7
:1000E0007B0800081B0100081B010008DFF80CD08A
:1000F00000F086FA00480047FD2500082005002092
:100100000648804706480047FEE7FEE7FEE7FEE7B1
:10011000FEE7FEE7FEE7FEE7FEE7FEE73920000820
:10012000ED000008202A04DB203A21FA02F0002129
:10013000704721FA02F3D040C2F1200291400843F7
:1001400019467047D2B201E000F8012B491EFBD2DC
:1001500070470022F6E710B513460A4604461946D2
:10016000FFF7F0FF204610BD2DE9FE4F81EA0304A2
:1001700004F0004421F0004100944FF0000B23F004
:10018000004350EA01045ED052EA03045BD0C3F39B
:100190000A54C1F30A552C44A4F2F3340194A0FB91
:1001A0000254C1F3130141F48011C3F3130343F468
:1001B000801301FB024400FB034E840A970A44EAC1
:1001C000815447EA8357A4FB076802958D0A05FB13
:1001D00007854FEA932C04FB0C542705029D4FEA38
:1001E000065847EA1637B5EB08056EEB070C870E85
:1001F000920E47EA811742EA8312A7FB0201B6EB8F
:100200000B0164EB00042B0D43EA0C335E1844EB46
:100210001C50DA465146E7FB0201C5F313044FEACE
:100220000B3343EA14534FEA0432019C43EA0603BA
:10023000A4F10C040294009CCDE900B400F03BF85A
:1002400003B0BDE8F08F00200146F9E70EB540F29B
:10025000334102910021CDE900110A460B4600F01E
:100260002AF803B000BDC1F30A5210B5C1F313015F
:1002700040F2FF3341F480119A4201DA002010BDB0
:1002800040F233439A42A2F2334203DC5242FFF778
:1002900049FF10BD904010BD10B5141E73F100044D
:1002A00008DA401C41F1000192185B411A4301D168
:1002B00020F0010010BD2DE9F04D92469B4611B192
:1002C000B1FA81F202E0B0FA80F22032904600F0FA
:1002D000A9F904460F4640EA0A0041EA0B015346D9
:1002E0005A46084313D0114653EA010019D0C8F109
:1002F00040025046FFF716FF05460E465046594647
:10030000424600F08FF9084305D0012004E0204662
:100310003946BDE8F08D0020054346EAE0762C43DF
:1003200037430A986305E40AA0EB08000022FD0A9F
:1003300044EA47540A3002D500200146E9E70105A6
:1003400010196941DDE9084500196941BDE8F04D22
:10035000A2E72DE9FE4F804681EA0300C00F0C465C
:10036000009021F0004123F00045B8EB0200A941C4
:1003700005D24046214690461C460B46024623F0D5
:100380000040104347D0270DC7F30A00C3F30A51BA
:100390000290401A019040286BDAC3F3130040F436
:1003A000801B0098924620B10023D2EB030A63EB36
:1003B0000B0B01985946C0F14002504600F032F94B
:1003C00006460D4650465946019A00F03AF910EBA0
:1003D00008006141002487EA115284EAE7731A4356
:1003E00040D0009A62B3019A012A4FEA075215DC05
:1003F000001B61EB02014FF0004202EA0752CDE917
:100400000042001C41F5801132462B46FFF753FF96
:1004100003B0BDE8F08F40462146F9E7001B61EBD1
:100420000201001C41F5801300185B412018A2F561
:10043000001747EB030140EAD570B6196D4111E092
:100440006D084FEA360645EAC0754FEA0752001BB1
:1004500061EB0201001C41F5801149084FEA3000B0
:100460000019514132462B4603B0BDE8F04FFFF76B
:1004700013BF0098012240000023D0EB020263EB7F
:10048000E073009821464FEAE074B8EB000061EB9E
:100490000401E9E783F000435BE781F0004158E79E
:1004A0002DE9F04D81EA030404F0004B21F00045F2
:1004B00014464FF0000A23F0004150EA050220D014
:1004C00054EA01021DD0C5F30A570246C5F31303CF
:1004D000C1F31300C1F30A5640F4801543F48013AE
:1004E000A7EB0608101BD64608F2FD3873EB050093
:1004F00002D308F1010801E092185B41B8F1000F46
:1005000003DA00200146BDE8F08D00204FF4801191
:10051000064684460EE0171B73EB050705D3121B36
:1005200063EB050306434CEA010C49084FEA30002F
:1005300092185B4150EA0107EDD152EA030012D054
:1005400082EA040083EA0501084305D0101BAB4191
:1005500006D20122002306E000224FF0004302E011
:100560006FF0010253101AEB06004CEB085110EB30
:100570000A0041EB0B01BDE8F04DFFF78DBE70B5F1
:1005800021F0004303430CD0C1F30A550024D5EBFE
:10059000040564EB0403D617AD1AB34102DB002057
:1005A000014670BD201841EB025170BD0EB5C10F60
:1005B00080EAE0700844CA07002140F233438DE826
:1005C0000E000A460B46FFF776FE03B000BD0000A2
:1005D00030B5041E71F1000404DB4FF000444042CA
:1005E00064EB0101141E73F1000405DB1C464FF09F
:1005F0000043524263EB0403994208BF904230BD6E
:10060000064C074D06E0E06840F0010394E807005F
:1006100098471034AC42F6D3FFF76CFD083300085E
:1006200028330008202A04DB203A00FA02F10020D7
:1006300070479140C2F1200320FA03F31943904020
:100640007047202A06DBCB17203A41FA02F043EA32
:10065000E07306E041FA02F3D040C2F1200291407B
:100660000843194670472DE9F04D00231A461B1A1E
:100670008A4103DB00200146BDE8F08DC1F30A5238
:10068000C1F3130141F480154FF0000BD10702D1E3
:1006900000186D41521E0027044640F2FF113846F3
:1006A00001EB620A3E468046024600204FF480116C
:1006B000FFF738FDC2197141BB1846EB0100B4EBDE
:1006C000030C75EB000C04D3E41A65EB0005174628
:1006D0000E46241908F101006D4180463428E3DDFF
:1006E000F91946EB0600091BA84103D24FF0FF326F
:1006F000134601E0002213461BEB070046EB0A51AC
:10070000BDE8F04DFFF7C8BD70B5044600688168CC
:10071000C943C9071CD1816821F00101816000F043
:100720001DFD05460FE000BF00F018FD401B02282C
:1007300009D9A06A40F01000A062E06A40F0010010
:10074000E062012070BD20688068C043C007EBD024
:10075000002070BD10B50146406A826A12F0500F49
:1007600005D0006A026BBDE8104008461047816A58
:1007700041F40071816201688968C1F3424107292F
:100780000CD1017B51B9816A21F480718162816A47
:10079000C90403D4816A41F00101816200F0F4F8D8
:1007A00010BD10B5406A816A41F040018162C16AA2
:1007B00041F00401C16200F0E9F810BD10B5406AD3
:1007C00000F0E3F810BD0000F8B5002604460096DE
:1007D00000688168C943C90728D0816841F00101D8
:1007E0008160134813490068B0FBF1F000E0401E3F
:1007F00000900028FBD100F0B1FC054611E000BFDD
:1008000000F0ACFC401B02280BD9A06A40F010009D
:10081000A062E06A40F00100E06284F824600120F8
:10082000F8BD20688068C043C007E9D10020F8BD4A
:100830002000002040420F00FEE70000014800F0C9
:100840004DBA00005800002030B590F84050012407
:10085000AC40C56B6C60046863604368102B036830
:1008600003D099600068C26030BD9A600068C160C2
:1008700030BD7047012000F06FBB4FF4806000F086
:100880006BBB4FF4007000F067BB7047F8B50024F5
:10089000009490F824202546012A12D0012280F8E5
:1008A00024204A681F23072A0DD20668776B521E40
:1008B00002EB820293409F430B6893401F43776390
:1008C00019E00220F8BD06680D2A0AD2376BD21F44
:1008D00002EB820293409F430B6893401F433763B0
:1008E00009E0F76A0D3A02EB820293409F430B68DE
:1008F00093401F43F7620A68072306680A2A0AD34F
:10090000F7680A3A02EB420293409F438B68934098
:100910001F43F76008E0376902EB420293409F43B0
:100920008B6893401F4337610A68102A01D0112A4F
:1009300020D1124B02689A4217D193681B0219D436
:10094000936843F4000393600968102912D10C499D
:100950000C4A0968B1FBF2F101EB8101490000E0AA
:10096000491E00910029FBD104E0816A41F0200179
:100970008162012480F824502046F8BD0024014003
:100980002000002040420F00704770477047000071
:100990002DE9F0414FF0000704003D467ED0A06AEB
:1009A000002628B9E66284F82460204600F07EF82C
:1009B0002046FFF7A9FEA16AC90600D420B1A06AAB
:1009C00040F01000A06269E0A16A21F4885141F072
:1009D0000201A1626268E169237B0A4347EA43019D
:1009E0000A43A1684FF48077B94209D0012907D0A2
:1009F0005FF0000194F814C0BCF1010F02D00AE0CE
:100A00003946F7E7F3B1A36A43F02003A362E36A30
:100A100043F00103E3622368D3F804C02CF4694C6B
:100A20004CEA010CC3F804C021688B68DFF870C081
:100A300003EA0C0313438B60A168B9420BD0012970
:100A400009D00CE0DFF85CC0A3690CEB43330B4327
:100A500043F40061DFE7218A0D05A5F580152168C3
:100A6000CB6A23F470032B43CB62216889680E4B59
:100A70001940914208D1E662A16A21F0020141F0D9
:100A80000101A162BDE8F081A06A20F0020040F0FF
:100A90001000A062E06A40F00100E0620120F1E78E
:100AA000FDF7E1FF00E0FFFFFE0E1FFF70B586B00F
:100AB00000250646009501950295039500681949A1
:100AC00088422DD11849886940F40070886188698E
:100AD00000F400700490886940F00400886188691F
:100AE000694600F0040004900320009001900F4834
:100AF00000F03EFA0F4C0E48C4E900058020C4E91E
:100B0000025040002061800060612020C4E9060599
:100B1000204600F08DF908B1FFF7B7FE3462666237
:100B200006B070BD002401400010024000080140E2
:100B300008000240580000202DE9F047894604468D
:100B40003B4900683B4F0E1D9046884201D0B84299
:100B500007D1306810F4702F03D001252846BDE876
:100B6000F08794F8240001280CD0012084F8240098
:100B70002046FFF729FE05004FF0000004D084F85E
:100B80002400EBE70220EAE7A16A40F60162914304
:100B900041F48071A1622168B94218D1326812F41F
:100BA000702F14D0A16A41F48011A1623168490507
:100BB00005D5A16A21F4005141F48051A162A16AD6
:100BC000C9040AD5E16A21F00601E16206E0A26AE1
:100BD00022F48012A2624968E9E7E06284F8240006
:100BE000216A15488862216A1448C862216A14483B
:100BF000086321686FF0020008602068816841F492
:100C000080718160216843464A464C31206A00F079
:100C10003DF920688168C1F342410729816803D00A
:100C200041F48011816099E741F4A001FAE70000E6
:100C3000002401400028014055070008BD070008B6
:100C4000A307000810B590F821100024022903D052
:100C50000421816301243DE001680A6822F00E024C
:100C60000A6001680A6822F001020A601A4A0168F3
:100C7000914201D1012121E0174A1432914201D160
:100C800010211BE0144A2832914201D1891515E048
:100C9000114A3C32914201D189140FE00E4A503280
:100CA000914202D14FF4803108E00B4A6432914204
:100CB00002D14FF4801101E04FF08071064A083AEA
:100CC0005160012180F82110002180F82010416B33
:100CD00001B18847204610BD080002402DE9F05FB1
:100CE000C16B0C6801680B68D0F840C0042202FA9E
:100CF0000CF2494DDFF824A1494E4A4FDFF828B1E4
:100D0000DFF828E122422CD05A072AD50A68920639
:100D100003D40A6822F004020A600168A94201D1E2
:100D2000042219E0514501D1402215E0B14202D11F
:100D30004FF4806210E0B94202D14FF480420BE0E0
:100D4000594502D14FF4802206E0714502D14FF49B
:100D5000800201E04FF080622F4908394A60C16A81
:100D60003BE04FF0020808FA0CF818EA040F4FF0C5
:100D700000094FF0010235D05FEA837832D50B6865
:100D80009B0605D40B6823F00A030B6080F8212032
:100D90000168A94201D1022219E0514501D1202266
:100DA00015E0B14202D14FF4007210E0B94202D115
:100DB0004FF400520BE0594502D14FF4003206E0E7
:100DC000714502D14FF4001201E04FF00072124958
:100DD00008394A6080F82090816A00291AD0BDE85D
:100DE000F05F0847082505FA0CF5254212D01B07CD
:100DF00010D50B6823F00E030B6090F84010C36B06
:100E000002FA01F15960826380F8212080F8209075
:100E1000016BE2E7BDE8F09F080002401C000240C1
:100E20003000024044000240580002406C00024082
:100E300030B528B308C8134914221944B1FBF2F1A4
:100E40008900C16310498163022141771A6843F622
:100E5000F0718A43D0E900142143D0E902452C43C4
:100E60002143046921434469214384692143114397
:100E7000196000214163012242770177084630BDA5
:100E8000012030BDF8FFFDBF0000024070B50446F0
:100E900090F82000002501280CD0012084F82000C3
:100EA00094F821600020012E06D084F8200002254D
:100EB000284670BD022070BD022684F82160A06320
:100EC0002068066826F0010606602046FFF7BCFC95
:100ED000E06A00282068016802D041F00E0106E0B7
:100EE00021F0040101602068016841F00A010160FD
:100EF0002068016841F001010160D9E770B504463E
:100F000000F02CF90546601C02D004480078044427
:100F100000F024F9401BA042FAD370BD1400002059
:100F2000B0F5007F08D0B0F5806F0AD0012802D15B
:100F3000074902200870704705490A230122891CCD
:100F400003E003490A230122C91C024800F0D4BE71
:100F500000000020DC000020044910B50A680242AD
:100F600002D00860FFF7DCFF10BD00001404014050
:100F70002DE9F84FDFF8B891002409F1040A0AF1CD
:100F8000040B23460F270BF1040EC9E00125A540F1
:100F90002A40AA427DD1674ED1F804C0ACEB0608C6
:100FA000B44532D014DCBCF1030F3AD009DCBCF1FB
:100FB000000F2AD0BCF1010F1CD0BCF1020F31D1BF
:100FC0001DE0BCF1110F17D0BCF1120F2AD119E0AE
:100FD000B8F5881F19D006DCB8F5803F15D0B8F5F4
:100FE000801F1FD111E0B8F5001F0ED0B8F5041F07
:100FF00018D10AE0CB6815E0CB681B1D12E0CB6866
:1010000008330FE0CB680C330CE08B682BB1012B5D
:101010004FF0080303D0456104E0042302E00561BA
:1010200000E00023FF2A01D8064601E000F1040693
:101030004FEA840501D9A5F12005D6F8008007FA0A
:1010400005FC28EA0C0803FA05F548EA0508C6F885
:1010500000804D68ED0062D5374DAE6946F001065F
:10106000AE61AD6924F0030605F001050095334D2E
:1010700006EB050CDCF80850A607360F07FA06F851
:1010800025EA0805DFF8B880404503D14FF0000895
:1010900017E044E0DFF8AC80404502D14FF0010892
:1010A0000FE0DFF8A480404502D14FF0020808E0CD
:1010B000DFF89880404502D14FF0030801E04FF07F
:1010C000040808FA06F848EA0508CCF808804D68D4
:1010D000D9F80060ED034D4601D5164300E0964374
:1010E0002E604D68DAF80060AD03554601D5164311
:1010F00000E096432E604D68DBF80060ED025D462F
:1011000001D5164300E096432E604D68DEF800607E
:10111000AD02754601D5164300E096432E60641C6F
:101120000D682A46E5407FF431AFBDE8F88F000036
:1011300000040140000011100010024000000140B6
:1011400000080140000C0140001001400014014063
:101150000AB1016170470904FBE70000014880689B
:101160007047000014000020024881680278114492
:101170008160704714000020074810B5016841F0F5
:1011800010010160032000F075F8002000F006F85F
:1011900000F024F8002010BD0020024070B50D4D75
:1011A00004464FF47A712878B1FBF0F00A490968D7
:1011B000B1FBF0F000F062FB48B9102C07D200221E
:1011C0002146501E00F036F800206C6070BD0120F2
:1011D00070BD000014000020200000200C4808B55D
:1011E000816941F001018161816901F00101009192
:1011F000C16941F08051C161C06900F08050009028
:101200000448416821F0E06141F08071416008BD0F
:101210000010024000000140002809DB00F01F021E
:10122000012191404009800000F1E020C0F8001148
:1012300070470000F0B40E4B1B680C46C3F302234A
:10124000C3F10705042D00D90425191D072901D272
:10125000002300E0DB1E012606FA05F1491E2140AD
:1012600099409E40761E16403143F0BC01F02BB9E8
:101270000CED00E0064900F0070208684FF6FF0396
:10128000184040EA0220034A1043086070470000FB
:101290000CED00E00000FA052DE9F8430546007862
:1012A000354CC00754D0E0690026C00008D4E0697E
:1012B00040F08050E061E069012600F0805000902D
:1012C0002E480168C90512D40168804641F4807136
:1012D0000160FFF743FF074605E000BFFFF73EFF51
:1012E000C01B642823D8D8F80000C005F6D5206AB2
:1012F00010F4407021D0A98801F4407181421CD0C3
:10130000206A1F49012220F440700A6000220A600E
:101310002062C00711D0FFF721FF074641F288384D
:1013200008E000BFFFF71AFFC11B414502D90320A7
:10133000BDE8F883206A8007F4D5206A696820F444
:101340004070084320621EB1E06920F08050E061E7
:101350002878800705D56068A96820F440400843D4
:1013600060602878C00605D56068E96820F48000D0
:10137000084360600020DBE700100240007000407E
:10138000400442422DE9F0470F46050061D0434E2C
:10139000306800F00700B84209D2306820F007003A
:1013A00038433060306800F00700B84251D12868F7
:1013B0003B4C810712D5400703D5606840F4E060DC
:1013C00060602878000703D5606840F46050606072
:1013D0006068A96820F0F000084360602878C007C2
:1013E00028D06868012810D02168022810D0890709
:1013F00000292EDA616821F0030101436160FFF7E3
:10140000ADFE804641F288390DE021688903EFE79F
:101410008901EDE7FFF7A2FEA0EB0801494502D9DB
:101420000320BDE8F0876068696800F00C00B0EB4D
:10143000810FEFD1306800F00700B8420BD9306857
:1014400020F0070038433060306800F00700B842F1
:1014500001D00120E5E72878400705D56068E968F4
:1014600020F4E060084360602878000706D56068D3
:10147000296920F4605040EAC100606000F038F84B
:101480006168084AC1F30311515CC840064908600D
:1014900006480068FFF782FE0020C2E700200240F5
:1014A00000100240603200082000002018000020D8
:1014B0000448054900684968044AC1F30221515CA7
:1014C000C840704720000020001002407032000821
:1014D0000448054900684968044AC1F3C221515CC7
:1014E000C840704720000020001002407032000801
:1014F00012A185B00FC98DE80F0014A0144A00682E
:1015000004905168134801F00C03042B10D0082BF1
:101510000ED1C1F38343C9031DF803000AD55168F6
:1015200004AAC1F34041515C0A4A5043B0FBF1F0B8
:1015300005B0704708494843FAE700000203040574
:10154000060708090A0B0C0D0E0F1010010200000F
:101550000010024000127A0000093D002DE9F84F0A
:10156000040070D02078C04DC00749D06868C0F32F
:101570008100012807D06868C0F38100022809D1E2
:101580006868C00306D52868800339D560680028DC
:10159000E7D035E06068B0F5803F0BD010B1B0F512
:1015A000A02F11D0286820F480302860286820F40B
:1015B000802002E0286840F480302860606890B1A4
:1015C000FFF7CCFD06460AE0286840F4802028603A
:1015D000F0E700BFFFF7C2FD801B642873D82868BE
:1015E0008003F7D50CE0FFF7B9FD064605E000BF24
:1015F000FFF7B4FD801B6428F0D828688003F7D477
:1016000020789A4E80074FF001094FF0000839D535
:10161000686810F00C0F07D06868C0F381000228DA
:1016200009D16868C00306D42868800714D52069EA
:10163000012808D110E02069B0B1C6F80090FFF78A
:101640008DFD074605E00AE1FFF788FDC01B022873
:10165000C4D828688007F7D52868616920F0F800A9
:1016600040EAC10028600DE0C6F80080FFF776FD73
:10167000074604E0FFF772FDC01B022823D8286844
:101680008007F7D4207800072CD57948A169D9B113
:10169000C0F80090FFF762FD074604E0FFF75EFD2B
:1016A000C01B02280FD8686A8007F7D571484FF42D
:1016B000FA510068B0FBF1F0009000BF0098411EA5
:1016C0000091FAD20EE080E0C0F80080FFF746FDFE
:1016D000074604E0FFF742FDC01B022875D8686A80
:1016E0008007F7D42078400760D5E8690027C0005C
:1016F00008D4E86940F08050E861E869012700F00B
:10170000805000905C480168C90513D40168834685
:1017100041F480710160FFF721FD824606E000BFC1
:10172000FFF71CFDA0EB0A0064284ED8DBF8000090
:10173000C005F5D5E06801280AD008B1052813D006
:10174000286A20F001002862286A20F0040002E0E4
:10175000286A40F001002862E06841F2883B98B1B5
:10176000FFF7FCFC82460BE0286A40F00400286288
:10177000EEE700BFFFF7F2FCA0EB0A0159455AD88B
:10178000286A8007F6D50CE0FFF7E8FC824605E002
:10179000FFF7E4FCA0EB0A0159454CD8286A800702
:1017A000F6D41FB1E86920F08050E861E06988B3A1
:1017B0006968C1F38101022944D00228C6F860801B
:1017C00004D0FFF7CBFC044638E034E0FFF7C6FC5A
:1017D000074604E0FFF7C2FCC01B02282BD828688C
:1017E0008001F7D4206AB0F5803F05D16868A16810
:1017F00020F4003008436860D4E9080108436968B0
:1018000021F4741108436860C6F86090FFF7A6FCE5
:10181000044606E025E000BFFFF7A0FC001B0228FD
:1018200009D828688001F7D51BE000BFFFF796FCB8
:10183000001B022802D90320BDE8F88F2868800128
:10184000F4D40EE00128F7D06868226A00F48031F1
:10185000914204D1616A00F47010884201D00120E5
:10186000EAE70020E8E700000010024000004242E2
:1018700080044242200000200070004010B5401E4D
:10188000B0F1807F01D3012010BD4FF0E0246061F2
:101890000F21601700F017FE0020A06107202061D3
:1018A000002010BD70B590F83C20012A19D0012409
:1018B00000F83C4F0222427050F83C3C5A689D6848
:1018C00022F070060A684968324325F080052943F2
:1018D0005A6050F83C2C9160447000210170084619
:1018E00070BD022070BD000000B585B000210091E0
:1018F00001910291039100680B49884211D10B4874
:10190000816941F0040181618069694600F0040049
:101910000490C02000900220019003900448FFF73B
:1019200027FB05B000BD000000040040001002408D
:101930000008014070B5044690F83C000D460128AF
:101940000DD0012684F83C60022084F83D0042B1AD
:10195000042A18D0082A2AD00C2A4DD139E00220B6
:1019600070BD206800F0D0FB2068816941F008015B
:1019700081612068816921F00401816120688169A9
:101980002A69114311E0206800F0E6FB20688169B4
:1019900041F4006181612068816921F48061816185
:1019A000206881692A6941EA0221816124E0206876
:1019B00000F0FEFB2068C16941F00801C1612068A8
:1019C000C16921F00401C1612068C1692A6911431C
:1019D00011E0206800F018FC2068C16941F4006142
:1019E000C1612068C16921F48061C1612068C16959
:1019F0002A6941EA0221C16184F83D60002084F82F
:101A00003C0070BD10B5040003D094F83D0010B147
:101A100007E0012010BD002084F83C00204600F0C3
:101A20000DF8022084F83D00211D206800F028FBFD
:101A3000012084F83D00002010BD000008B50068BA
:101A40000649884208D10648C16941F00201C161D6
:101A5000C06900F00200009008BD000000040040D2
:101A60000010024010B504460068012200F03EFB61
:101A700009492068884203D1416C41F40041416426
:101A80002068816801F00701062903D0016841F050
:101A900001010160002010BD002C014070470000D2
:101AA00070B5026804461068D168536910F00F0FD2
:101AB00050D003F0010501F4907635435DD0C207A4
:101AC00005D0CA0503D5E26B42F00102E26342078A
:101AD00005D5DA0703D0E26B42F00202E263820727
:101AE00005D5DA0703D0E26B42F00402E263020795
:101AF00005D5DA0703D0E26B42F00802E263E26B3D
:101B0000002A33D0800604D5880602D5204600F08E
:101B1000B3FB20684069E16BC0F38010090700D473
:101B200028B3204600F09AFB2068416949061AD57F
:101B3000416921F040014161606BA0B11B494163E3
:101B4000606BFFF77FF8002810D0606B416BBDE839
:101B500070400847830610D58B060ED52046BDE899
:101B6000704000F089BB2046FFF798FF70BD20460B
:101B7000FFF794FF0020E06370BD030606D50B0657
:101B800004D52046BDE8704000F01EBC4006F3D5E9
:101B90004806F1D5D168204621F04001D1602021CE
:101BA00084F8391000F005F970BD00004D220008DE
:101BB00070B5040004D094F83900002510B106E097
:101BC000012070BD84F83850204600F023F824200E
:101BD00084F839002068C16821F40051C1602046B2
:101BE00000F096FB2068016921F4904101612068B2
:101BF000416921F02A0141612068C16841F4005126
:101C0000C160E563202084F8390084F83A000020A0
:101C100070BD000030B585B000240094019402949A
:101C2000039400681449884224D11448C16941F4DE
:101C30008021C161C16901F480210491816941F071
:101C40000801816180690E4D00F0080004904FF496
:101C5000806000900220019003200390694628468E
:101C6000FFF786F9E814CDE9000469462846029496
:101C7000FFF77EF905B030BD00480040001002407B
:101C8000000C014090F83A30202B22D1F9B1F2B18A
:101C900090F83830012B1CD081628285C2850021EA
:101CA000C163222280F83A2080F838100168CA689F
:101CB00042F48072CA6001684A6942F001024A61D6
:101CC0000068C16841F02001C16000207047012018
:101CD000704702207047000000680449884204D120
:101CE000012203490348FFF7CDBF70470048004079
:101CF00001000020DC0000202DE9F843044690F8A4
:101D000039001F4616460D46202850D1A5B19EB178
:101D100094F8380001284AD0012084F838004FF0A8
:101D20000008C4F83C80212084F83900FFF716FA37
:101D3000A6848146E68426E00120BDE8F883E08C95
:101D4000401EE084A0684B46B0F5805F4FF0000273
:101D50004FF080012046009703D000F066FBE8B901
:101D60000DE000F062FBC8B928882168C0F30800C4
:101D70004860206908B16D1C05E0AD1C03E02168D6
:101D800015F8010B4860E08C0028D8D14B460022A2
:101D900040212046009700F048FB08B10320CCE723
:101DA000202084F8390084F838800020C5E702201C
:101DB000C3E77047FEE70000FEB500241648009414
:101DC000019414490294016089158160012505730D
:101DD0000475022606614FF460214460C161FEF77C
:101DE000D7FD08B1FEF751FD06200094CDE9015062
:101DF00069460948FEF74AFD08B1FEF746FDCDE900
:101E0000005669460448FEF741FD002801D0FEF760
:101E10003CFDFEBD0024014028000020094808B513
:101E2000416941F0010141614069002200F0010077
:101E3000009011460B20FFF7FDF9BDE808400B208C
:101E4000FFF7EAB9001002402DE9F04786B0002400
:101E50002A480094019402940394816941F020017E
:101E60008161816901F020010491816941F00401DF
:101E70008161816901F004010491816941F00801E7
:101E800081618069DFF878A000F0080004900022EA
:101E900018215046FFF75CF9DFF868904FF470485E
:101EA000002241464846FFF753F918200125022633
:101EB000CDE90005CDE9024669465046FFF758F8DE
:101EC000114F0095CDE9017469464846FFF750F877
:101ED000CDF800800396CDE9015469464846FFF7E6
:101EE00047F84FF4C060CDE90007694602945046B8
:101EF000FFF73EF806B0BDE8F08700000010024092
:101F000000080140000C01400000111010B58AB01B
:101F1000002407941C2168460894FEF71AF91C480F
:101F20001A4901608F21C0E9011440F6C311C0E9CC
:101F300003148461FFF766FD08B1FEF7A6FC079461
:101F400007A913480894FFF7ADFC08B1FEF79DFC04
:101F5000602000904FF47A70CDE9010400226946B8
:101F60000B480494FFF7E6FC08B1FEF78EFC6420F2
:101F70000190042269460648FFF7DCFC08B1FEF731
:101F800084FC0348FFF7B0FC0AB010BD0004004019
:101F90009C0000200C4810B50A4901604FF4E13163
:101FA0004160002181600C22C160C0E9041281619E
:101FB000C161FFF7FDFD002803D0BDE81040FEF72A
:101FC00064BC10BD00480040DC000020FEE7704704
:101FD00070477047FFF7C8B830B593B028216846FE
:101FE000FEF7B7F814210AA8FEF7B3F80024012081
:101FF0000F9410941194010412948DE8130004902E
:102000004FF4E010CDE90810022507956846FFF768
:10201000A5FA0F20CDE90A056802CDE90C4002219E
:102020000AA80E94FFF7AEF9A80311900F950FA818
:10203000FFF732F913B030BD0D48016841F00101DE
:10204000016041680B4A1140416001680A4A114031
:102050000160016821F480210160416821F4FE01E2
:1020600041604FF41F0181600449C003086070475C
:10207000001002400000FFF8FFFFF6FE08ED00E050
:10208000F0B50268164B174C174D4FF08047984239
:1020900005D0B84203D0A04201D0A84203D122F01B
:1020A00070064A683243984205D0B84203D0A04235
:1020B00001D0A84203D122F44074CA6822434C697B
:1020C00022F08002224302608A68C2620A68826249
:1020D000984201D10969016301214161F0BD00000D
:1020E000002C0140000400400008004010B501F041
:1020F0001F030121046A99408C430462016A9A40DB
:102100001143016210BD000030B5026A22F00102E5
:102110000262026A4368846924F073050C682C43E8
:1021200022F002058A682A430A4DA8420BD122F008
:102130000805CA6823F440732A434D6922F004025B
:102140001D438B692B43436084614968416302628C
:1021500030BD0000002C014030B5026A22F01002B0
:102160000262026A436884690D6824F4E64444EA22
:1021700005248D6822F0200242EA05120B4DA84288
:102180000ED1CD6822F0800242EA05124D6923F497
:10219000406343EA85038D6922F0400243EA8503E8
:1021A0004360846149688163026230BD002C014054
:1021B00030B5026A22F480720262036A4268C4691E
:1021C00023F4007324F073050C682C438D6843EAF4
:1021D00005230C4DA8420ED1CD6823F4006343EAD9
:1021E00005234D6922F4405242EA05128D6923F419
:1021F000806342EA05124260C4614968C1630362B8
:1022000030BD0000002C014030B5026A22F480523B
:102210000262046A4268C3690D6823F4E64343EA34
:1022200005238D6824F4005444EA0534064DA84281
:1022300004D14D6922F4804242EA85124260C361B2
:1022400049680164046230BD002C014010B5406A49
:102250000021C185C184FFF721FC10BD0168CA6857
:1022600022F49072CA6001684A6922F001024A6150
:10227000202180F83A10704710B590F83A102229C2
:1022800001D0022010BD8168B1F5805F11D00169D5
:10229000002901681FD0496801F07F03816A4A1C48
:1022A00082620B70C18D491E0904090CC18518D0CA
:1022B0002BE00269816A002A0268526805D0D2B216
:1022C0000A80816A491C8162ECE7C2F308020A8035
:1022D000816A891CF7E74A68816A4B1C83620A702D
:1022E000E0E70168CA6822F02002CA600168CA6893
:1022F00022F48072CA6001684A6922F001024A61D0
:10230000202180F83A10FFF7E7FC002010BD000004
:102310002DE9F041044600680169E26821F440516A
:10232000114301612169A06808436169084321687C
:10233000CA6841F20C639A430243CA60206841694B
:10234000A26921F44071114341611E49206864254E
:102350003226884202D1FFF7BBF801E0FFF7A8F868
:1023600000EBC00101EB001160686FF018078000FE
:10237000B1FBF0F2B2FBF5F2B1FBF0F37A4303EB01
:102380008202B1FBF0F306EB0212B2FBF5F2B3FBF3
:10239000F5F302F0F00202EB0312B1FBF0F3B1FB34
:1023A000F0F0B0FBF5F0784303EB800006EB001093
:1023B000B0FBF5F0216800F00F0010448860BDE824
:1023C000F08100000038014090F83910212901D037
:1023D000022070478168B1F5805F016A0BD04A1C0A
:1023E0000262026809785160C18C491E0904090C17
:1023F000C1840ED017E009880268C1F3080151605A
:1024000001690029016A02D0491C0162ECE7891CBC
:10241000FBE70168CA6822F08002CA600068C168F0
:1024200041F04001C160002070472DE9F04198461D
:1024300017460E460446069D1DE0681C1BD02DB1B4
:10244000FEF78CFEA0EB0800A84214D92068C168F2
:1024500021F4D071C1602068416921F0010141611E
:10246000202084F8390084F83A00002084F83800ED
:102470000320BDE8F0812068006836EA000004D03F
:102480000020B842D9D00020F3E70120F9E700008E
:102490000148FFF705BB0000DC000020FEE7490013
:1024A00050EAC12018BF04204A0D18BF40F00100B7
:1024B00040F2FF72B2EB515F08BF40F0020001280A
:1024C00008BF052070470907090E002804DB00F14A
:1024D000E02080F80014704700F00F0000F1E020C9
:1024E00080F8141D70472DE9F0414F1E00EBC70125
:1024F0000446D1E9000115461E4637F006020DD00C
:102500002A463346FDF730FE7F1E04EBC703D3E9AE
:102510000023FDF71EFF37F00602F1D1022F25D070
:10252000042F13D0062F18BFBDE8F0812A4633468A
:10253000FDF71AFED4E90A23FDF70BFF2A463346BE
:10254000FDF712FED4E90823FDF703FF2A463346C0
:10255000FDF70AFED4E90623FDF7FBFE2A463346C3
:10256000FDF702FED4E90423FDF7F3FE2A463346C5
:10257000FDF7FAFDD4E90223FDF7EBFE2A463346C8
:10258000FDF7F2FDD4E90023BDE8F041FDF7E1BE1F
:102590000022134610460149FDF782BF0000F03FBC
:1025A000FDF7D7BE0022134610461146FDF778BF4F
:1025B00040F2013200204FF0E041FDF7E0BF0000A3
:1025C000024A00201107FDF7DABF000001FDFFFFFE
:1025D00002E008C8121F08C1002AFAD170477047EC
:1025E000002001E001C1121F002AFBD1704700004A
:1025F000014908607047000024000020FEF7BCFD80
:10260000FFF7EAFCFFF720FCFFF708FCFFF77EFC72
:10261000FFF7D2FBFFF7BEFC002211462720FEF792
:1026200009FE2720FEF7F8FD002211461720FEF7CD
:1026300001FE1720FEF7F0FD002211462820FEF7CC
:10264000F9FD2820FEF7E8FD002211460620FEF7DE
:10265000F1FD0620FEF7E0FD01221E491E48FFF7AE
:1026600011FB00211D48FFF7FDF904211B48FFF76E
:10267000F9F900F06FFD1A4D164C2E1D0027641E4F
:1026800040F2DC5800F02EF8208928606089306024
:102690006078B42801D8207107E0FF2802D0FE2816
:1026A00002D002E0607100E0A0712078012809D01A
:1026B00002280BD00328E5D100F0B8FD4046FEF714
:1026C0001DFCDFE700F050FD2770DBE700F054FD54
:1026D000D8E7000001000020DC0000209C00002062
:1026E0003404004010B50E4C2088FDF7AFFD4FF0CC
:1026F00066320C4BFDF738FD00220B4B00F018F84A
:1027000000220A4BFDF730FDFDF7ADFDA4F11001ED
:10271000052288816088B0FBF2F0C88110BD0000FE
:102720001000002066664A3F0000F0BF00002A400B
:102730002DE9F04D1D460C4698B0174621F000419A
:1027400023F00043002814BF4FF0010C4FF0000CA1
:102750000CEB440CFE4A0CEB02064FEA620C664599
:102760002BD33E0018BF012606EB45061644F94A56
:10277000964222D3F84A53EA070C02D0944205D17C
:1027800048B918B000201146BDE8F08D002808BFF8
:102790004FF0000C01D04FF0010C0CEB440212F58D
:1027A000001F0AD8002F14BF4FF0010C4FF0000C8F
:1027B0000CEB450212F5001F07D918B03A462B461C
:1027C0002146BDE8F04DFFF7EBBE0022DFF88CA3F9
:1027D000002CB8BF534526DADFF884C36345A8BF91
:1027E000022220DADFF870C39C451CDCDFF874C3DA
:1027F0000CEB235CBCF1140F08DDCCF1340627FA96
:1028000006FC0CFA06F6BE420DD108E05FB9CCF129
:10281000140623FA06FC0CFA06F69E4203D10CF0CD
:102820000102C2F1020251EA000C19D1002D17DA9F
:10283000002C18BF022A01D0012A07D00220FFF77E
:10284000D7FE18B0BDE8F04DFFF7A2BE0220FFF79B
:10285000CFFEFFF79DFE18B081F00041BDE8F08D7E
:10286000B7F1000C6CD1534525D104F1804212F52B
:10287000801201BF00280020B74918B008BFBDE88A
:10288000F08DB548884207DC002DA1BF604629467F
:1028900018B0BDE8F08D07E0281E05DA80F0004191
:1028A00018B06046BDE8F08DAF497944D1E9000128
:1028B00018B0BDE8F08DDFF8A0C2634525D1002D2A
:1028C0001FDA19B1514512D1D8B909E0002840F0FA
:1028D000EC82A24A214618B062F31E01BDE8F08DD9
:1028E0000020214618B060F31E01BDE8F08D08DA23
:1028F00018B02346BDE8F04D024600206146FDF7C2
:10290000CFBD18B02146BDE8F08D514518DAB5F1BC
:10291000804F0DD0A5F1005CBCF1FF5C10D1B4F18B
:10292000000C0DDB18B06146BDE8F04D00F0ECBBCB
:10293000234618B00246BDE8F04D1946FDF714BC19
:10294000060024F0004C3BD1D9B1514533D1002CC5
:1029500006DD002DA1BF0020514618B0BDE8F08D66
:10296000002C01DD002D1BDB002C13DA002D11DB08
:10297000012A4FF0000014BF78497C4918B0BDE827
:10298000F08D022A18BF002C0AD0012A08D1002C91
:1029900006DA0AE0002CB8BF002D11DA012A04D0B3
:1029A000002018B00146BDE8F08D18B000204FF0AF
:1029B0000041BDE8F08DA1F14050B0F17F601AD028
:1029C000012000EBE47050EA020421D0624C521E58
:1029D0004FF0000B104304BF4FF0000B644C6548F0
:1029E00083427CDD644A654893421FDD884217DBE1
:1029F000002D25DB37E0002C00DA4AB1022A0CBF9B
:102A000001204FF0FF3018B0BDE8F04DFDF7CEBD0E
:102A10000120FFF7EDFD18B0BDE8F04DFFF7C2BD96
:102A20004D4A8A4202DC002D0ADC1CE0814202DAB7
:102A3000002D18DA04E0484B994220DD002D12DD0C
:102A40000220FFF7D5FDFFF7B3FD05460E46002235
:102A5000534658462146FDF787FB18B066F31E0122
:102A60002846BDE8F08D0220FFF7C2FDFFF7A8FD64
:102A70000A46214618B062F31E01BDE8F08D00221F
:102A800030466146FDF706FD80460E466FF00102B6
:102A9000FDF775FD4FF05532394BFDF7FEFC424610
:102AA0003346FDF761FB0022364BFDF7F6FC82460C
:102AB00042463346049110461946FDF755FB5246EF
:102AC000049BFDF751FB8A4600904FF0C0422E4B0D
:102AD00040463146FDF748FB2C4A2B4B00E027E0EF
:102AE000CDE9060151460098FDF73EFB8246019173
:102AF000274A284B40463146FDF736FB5246019B9C
:102B0000FDF7C8FC82460B4602460591DDE9060149
:102B1000FDF71FFCDDE90623002688463046FDF759
:102B2000B9FC5246059BFDF7B8FC024600F07EB9A1
:102B30000020B1F5801F07DA352230466146FDF7E7
:102B40001EFD06466FF0340000EB215024E000002B
:102B5000FFFF1F00FFFF0F000000F03F0000F07FAD
:102B60000000404301FCFFFF520A00000000F0FF9C
:102B70000000F0BF0000E0410000F043FFFFEF3F26
:102B80005555D53F0000E03F4715F73FFE822B65C6
:102B900044DF5DF80BAE543EA0F2FF300190C1F36C
:102BA000130040F07F6141F040510291FE4988429C
:102BB000D8BF002004DDFD498142C8BF012001DDEE
:102BC0000D9008E000200D900198401C01900298A3
:102BD000A0F5801002900299F54878440B910D9968
:102BE00000EBC100D0E900230F9330460A920B9905
:102BF000FDF750FCCDE90601DDE90A2130460F9BC7
:102C0000FDF7A7FB02460B460020EA49FDF748FC0A
:102C1000059102460B460090DDE90601FDF7A4FA96
:102C20001490E5488A464FF00008784402990068FD
:102C300012904FF0005040EA61010D980F9B01EB9C
:102C4000804000F5002109910A9A1298FDF722FCB4
:102C500032460B9BFDF721FC42465346FDF784FAB2
:102C60000646029140465146099B129AFDF77CFAAE
:102C7000DDE90623FDF711FC3246029BFDF70AFC55
:102C8000059B009AFDF770FA0091149A0490534640
:102C900010461946FDF768FA06460246C7480B4635
:102CA000029106217844FFF71EFCCDE90510029B36
:102CB000324610461946FDF757FADDE90532FDF7B1
:102CC00053FA05910646534640461946149AFDF7B5
:102CD00040FB009B049AFDF747FA3246059BFDF73F
:102CE00038FBCDE905104246534610461946FDF71C
:102CF0003BFA0022B24B02910A90FDF72AFBDDE974
:102D00000532FDF726FB0E464246AD4B4046FDF729
:102D1000C1FB029B0A9AFDF7BDFBDDE90532FDF719
:102D2000BCFB424602910A90334610465146FDF7DD
:102D30001BFACDE906015346149A02990A98FDF749
:102D400013FA8A4602903346424600990498FDF7EA
:102D50000BFA5346029AFDF7FCFA82460B460246EE
:102D60000591DDE90601FDF7F4FADDE9062300200F
:102D700088460646FDF78EFB5246059BFDF78DFB08
:102D8000824609914FF060428E4B30464146FDF736
:102D9000EBF9049006918C4A8A4B50460999FDF74D
:102DA000E3F982460291894A894B30464146FDF754
:102DB000DBF95246029BFDF7CCFA864B7B440D9A19
:102DC00003EBC203D3E90023FDF7C3FA0E9007918A
:102DD0000198FDF7EBFB0591DDE9061382460E9A9B
:102DE0000498FDF7B6FA7C4A7A440D9B02EBC303C4
:102DF000D3E9002300930292FDF7ABFA5246059BFC
:102E0000FDF7A7FA0026884652463046059BFDF797
:102E100041FB009B029AFDF73DFB069B049AFDF7E0
:102E200039FB079B0E9AFDF738FB024600200B4644
:102E3000029038462946FDF797F9824601912B46C4
:102E400038461946029AFDF725FB32464346FDF700
:102E50008BF95246019BFDF77CFA07468A463246BB
:102E6000434629460298FDF77FF905460E463A4645
:102E70005346FDF76EFA594A8846914221DBA8EB8A
:102E8000020353EA000210D12A463346FDF702FB43
:102E9000CDE90401524A534B38465146FDF759FAE1
:102EA000DDE90423FDF794FB21D20220FFF7A0FB0C
:102EB000FFF77EFB0A46214618B062F31E01BDE80B
:102EC000F08D494B28F000429A4210D3474A08EB54
:102ED000020353EA00027FF4C6AD2A463346FDF7EB
:102EE000D9FA3A465346FDF773FB7FF6BCAD002294
:102EF000019228F000403E493E4A01EB20518242B7
:102F000023DA481C4FF4801121FA00F040443A4A79
:102F1000C0F30A517A44394BA1F2FF31CB4020EA89
:102F20000303C0F3130040F48010C1F11401C84042
:102F300012680190B8F1000FBCBF404201902846D2
:102F40003146FDF7A7FA05460E462A46334638466F
:102F50005146FDF7FEF94FF000084246284B404627
:102F60000591FDF701F9CDE90601264A264B4046B9
:102F70000599FDF7F9F8009102902A46334640463C
:102F80000599FDF787FA3A465346FDF786FA1F4A38
:102F90001F4BFDF7E9F8009B029AFDF7DAF90746A7
:102FA000884602460B4635E08E9803007AB60B0041
:102FB0009A0600000000F03FD20600000006000064
:102FC0000000084009C7EE3FFD033ADCF5015B1441
:102FD000E02F3EBED80400009C040000000090409A
:102FE000FE822B654715973C00CC904000346F3F24
:102FF00001FCFFFF0000E03FE8030000FFFF0F00BF
:10300000432EE63F396CA80C615C20BEEF39FAFE16
:10301000422EE63FDDE90601FDF79BF9DDE90623D7
:1030200005460E46FDF736FA3A464346FDF735FAB1
:103030000F462A463346009010461946FDF794F88D
:10304000824602462E4888460B4605217844FFF703
:103050004AFA52464346FDF787F82A463346FDF7BB
:103060001CFA80468A463B4628463146009AFDF7C0
:103070007BF83B46009AFDF76CF906910090002220
:103080004FF0804340465146FDF704FA0F460C903E
:103090004246534628463146FDF766F83B460C9AB1
:1030A000FDF7FEF9069B009AFDF7F4F92A46334630
:1030B000FDF7F0F90022134BFDF7EFF905460198F3
:1030C0000E4601EB00510815002810DC2846314659
:1030D000019AFDF754FAFFF7E2F9042808BFFFF759
:1030E0006FFA28463146019AFDF749FA05460B4624
:1030F00018B02A4658462146BDE8F04DFDF734B8D1
:10310000880200000000F03F2DE9F04106460F461E
:10311000FDF7A9FA041E0D4618BF0120284320F030
:103120000040C0F17F6000F1E040C00F0ED0301CC5
:1031300018BF0120384320F00040C0F17F6000F14B
:10314000E040C00F04BF0120FFF752FA2046294695
:10315000BDE8F081022202490248FDF7EDBC000003
:10316000100000202800002000224FF47041014888
:10317000FDF7EEBF000C014010B52A4C01224FF4C0
:10318000A0412046FDF7E4FF00224FF420412046F5
:10319000FDF7DEFF24494FF4FA720879A0F14103EC
:1031A000182B06D8C0F1590303EBC30302EB43020B
:1031B0002DE0A0F15A03192B0ED8C0F1590202EBF1
:1031C000820202F5FA720A8100EBC0004FF6B232B9
:1031D00002EB4000488110BDA0F174033F2B0DD8D5
:1031E000C0F1590202EB820202F5FA720A8100EB89
:1031F00080004FF47B4202EB8000EBE7431E402B44
:103200000AD2C0F1590303EB830302EB830200EB04
:1032100080000A813730DDE70028DCD10A814A814D
:1032200010BD0000000C01400000002010B50A4C49
:1032300001224FF4A0412046FDF78AFF00224FF4FF
:1032400020412046FDF784FF04484FF4FA710181C4
:10325000C821418110BD0000000C01400000002089
:103260000000000000000000010203040607080936
:103270000000000001020304000000000000F03F15
:10328000000000000000F83F000000000000000007
:103290000000004003B8E23F000000000000000012
:1032A00006D0CF43EBFD4C3E033333333333E33FA0
:1032B000FFAB6FDBB66DDB3F4D268F515555D53FCC
:1032C00001411DA96074D13F65DBC9934A86CD3F9A
:1032D000EF4E454A287ECA3F3E5555555555C53F88
:1032E00093BDBE166CC166BF2CDE25AF6A56113F7A
:1032F000F16BD2C541BDBBBED0A4BE726937663E7C
:10330000000000000000000028330008000000203A
:1033100028000000D02500085033000828000020B5
:10332000F8040000E0250008005A31325A0000007D
:10333000F401F401000000000000000001000000A2
:1033400010000000000000000024F4000000000055
:04000005080000ED02
:00000001FF
